{
  "contractName": "ReviewSystem",
  "abi": [
    {
      "inputs": [
        {
          "internalType": "address",
          "name": "",
          "type": "address"
        },
        {
          "internalType": "uint256",
          "name": "",
          "type": "uint256"
        }
      ],
      "name": "reviews",
      "outputs": [
        {
          "internalType": "address",
          "name": "reviewer",
          "type": "address"
        },
        {
          "internalType": "uint8",
          "name": "rating",
          "type": "uint8"
        },
        {
          "internalType": "string",
          "name": "comment",
          "type": "string"
        }
      ],
      "stateMutability": "view",
      "type": "function",
      "constant": true
    },
    {
      "inputs": [
        {
          "internalType": "address",
          "name": "_dest",
          "type": "address"
        },
        {
          "internalType": "uint8",
          "name": "_rating",
          "type": "uint8"
        },
        {
          "internalType": "string",
          "name": "_comment",
          "type": "string"
        }
      ],
      "name": "addReview",
      "outputs": [],
      "stateMutability": "nonpayable",
      "type": "function"
    },
    {
      "inputs": [
        {
          "internalType": "address",
          "name": "_dest",
          "type": "address"
        }
      ],
      "name": "getNumberOfReviews",
      "outputs": [
        {
          "internalType": "uint256",
          "name": "",
          "type": "uint256"
        }
      ],
      "stateMutability": "view",
      "type": "function",
      "constant": true
    },
    {
      "inputs": [
        {
          "internalType": "address",
          "name": "_dest",
          "type": "address"
        }
      ],
      "name": "getReviews",
      "outputs": [
        {
          "components": [
            {
              "internalType": "address",
              "name": "reviewer",
              "type": "address"
            },
            {
              "internalType": "uint8",
              "name": "rating",
              "type": "uint8"
            },
            {
              "internalType": "string",
              "name": "comment",
              "type": "string"
            }
          ],
          "internalType": "struct ReviewSystem.Review[]",
          "name": "",
          "type": "tuple[]"
        }
      ],
      "stateMutability": "view",
      "type": "function",
      "constant": true
    }
  ],
  "bytecode": "0x608060405234801561001057600080fd5b50610dc0806100206000396000f3fe608060405234801561001057600080fd5b506004361061004c5760003560e01c80634ef5a017146100515780636db3328f14610081578063b2762893146100b3578063fc0b0c4d146100e3575b600080fd5b61006b6004803603810190610066919061057a565b6100ff565b6040516100789190610774565b60405180910390f35b61009b600480360381019061009691906107cc565b6102a1565b6040516100aa93929190610874565b60405180910390f35b6100cd60048036038101906100c8919061057a565b61039d565b6040516100da91906108c1565b60405180910390f35b6100fd60048036038101906100f89190610a3d565b6103e8565b005b60606000808373ffffffffffffffffffffffffffffffffffffffff1673ffffffffffffffffffffffffffffffffffffffff168152602001908152602001600020805480602002602001604051908101604052809291908181526020016000905b8282101561029657838290600052602060002090600202016040518060600160405290816000820160009054906101000a900473ffffffffffffffffffffffffffffffffffffffff1673ffffffffffffffffffffffffffffffffffffffff1673ffffffffffffffffffffffffffffffffffffffff1681526020016000820160149054906101000a900460ff1660ff1660ff16815260200160018201805461020590610adb565b80601f016020809104026020016040519081016040528092919081815260200182805461023190610adb565b801561027e5780601f106102535761010080835404028352916020019161027e565b820191906000526020600020905b81548152906001019060200180831161026157829003601f168201915b5050505050815250508152602001906001019061015f565b505050509050919050565b600060205281600052604060002081815481106102bd57600080fd5b9060005260206000209060020201600091509150508060000160009054906101000a900473ffffffffffffffffffffffffffffffffffffffff16908060000160149054906101000a900460ff169080600101805461031a90610adb565b80601f016020809104026020016040519081016040528092919081815260200182805461034690610adb565b80156103935780601f1061036857610100808354040283529160200191610393565b820191906000526020600020905b81548152906001019060200180831161037657829003601f168201915b5050505050905083565b60008060008373ffffffffffffffffffffffffffffffffffffffff1673ffffffffffffffffffffffffffffffffffffffff168152602001908152602001600020805490509050919050565b6000808473ffffffffffffffffffffffffffffffffffffffff1673ffffffffffffffffffffffffffffffffffffffff16815260200190815260200160002060405180606001604052803373ffffffffffffffffffffffffffffffffffffffff1681526020018460ff16815260200183815250908060018154018082558091505060019003906000526020600020906002020160009091909190915060008201518160000160006101000a81548173ffffffffffffffffffffffffffffffffffffffff021916908373ffffffffffffffffffffffffffffffffffffffff16021790555060208201518160000160146101000a81548160ff021916908360ff16021790555060408201518160010190816105009190610cb8565b505050505050565b6000604051905090565b600080fd5b600080fd5b600073ffffffffffffffffffffffffffffffffffffffff82169050919050565b60006105478261051c565b9050919050565b6105578161053c565b811461056257600080fd5b50565b6000813590506105748161054e565b92915050565b6000602082840312156105905761058f610512565b5b600061059e84828501610565565b91505092915050565b600081519050919050565b600082825260208201905092915050565b6000819050602082019050919050565b6105dc8161053c565b82525050565b600060ff82169050919050565b6105f8816105e2565b82525050565b600081519050919050565b600082825260208201905092915050565b60005b8381101561063857808201518184015260208101905061061d565b60008484015250505050565b6000601f19601f8301169050919050565b6000610660826105fe565b61066a8185610609565b935061067a81856020860161061a565b61068381610644565b840191505092915050565b60006060830160008301516106a660008601826105d3565b5060208301516106b960208601826105ef565b50604083015184820360408601526106d18282610655565b9150508091505092915050565b60006106ea838361068e565b905092915050565b6000602082019050919050565b600061070a826105a7565b61071481856105b2565b935083602082028501610726856105c3565b8060005b85811015610762578484038952815161074385826106de565b945061074e836106f2565b925060208a0199505060018101905061072a565b50829750879550505050505092915050565b6000602082019050818103600083015261078e81846106ff565b905092915050565b6000819050919050565b6107a981610796565b81146107b457600080fd5b50565b6000813590506107c6816107a0565b92915050565b600080604083850312156107e3576107e2610512565b5b60006107f185828601610565565b9250506020610802858286016107b7565b9150509250929050565b6108158161053c565b82525050565b610824816105e2565b82525050565b600082825260208201905092915050565b6000610846826105fe565b610850818561082a565b935061086081856020860161061a565b61086981610644565b840191505092915050565b6000606082019050610889600083018661080c565b610896602083018561081b565b81810360408301526108a8818461083b565b9050949350505050565b6108bb81610796565b82525050565b60006020820190506108d660008301846108b2565b92915050565b6108e5816105e2565b81146108f057600080fd5b50565b600081359050610902816108dc565b92915050565b600080fd5b600080fd5b7f4e487b7100000000000000000000000000000000000000000000000000000000600052604160045260246000fd5b61094a82610644565b810181811067ffffffffffffffff8211171561096957610968610912565b5b80604052505050565b600061097c610508565b90506109888282610941565b919050565b600067ffffffffffffffff8211156109a8576109a7610912565b5b6109b182610644565b9050602081019050919050565b82818337600083830152505050565b60006109e06109db8461098d565b610972565b9050828152602081018484840111156109fc576109fb61090d565b5b610a078482856109be565b509392505050565b600082601f830112610a2457610a23610908565b5b8135610a348482602086016109cd565b91505092915050565b600080600060608486031215610a5657610a55610512565b5b6000610a6486828701610565565b9350506020610a75868287016108f3565b925050604084013567ffffffffffffffff811115610a9657610a95610517565b5b610aa286828701610a0f565b9150509250925092565b7f4e487b7100000000000000000000000000000000000000000000000000000000600052602260045260246000fd5b60006002820490506001821680610af357607f821691505b602082108103610b0657610b05610aac565b5b50919050565b60008190508160005260206000209050919050565b60006020601f8301049050919050565b600082821b905092915050565b600060088302610b6e7fffffffffffffffffffffffffffffffffffffffffffffffffffffffffffffffff82610b31565b610b788683610b31565b95508019841693508086168417925050509392505050565b6000819050919050565b6000610bb5610bb0610bab84610796565b610b90565b610796565b9050919050565b6000819050919050565b610bcf83610b9a565b610be3610bdb82610bbc565b848454610b3e565b825550505050565b600090565b610bf8610beb565b610c03818484610bc6565b505050565b5b81811015610c2757610c1c600082610bf0565b600181019050610c09565b5050565b601f821115610c6c57610c3d81610b0c565b610c4684610b21565b81016020851015610c55578190505b610c69610c6185610b21565b830182610c08565b50505b505050565b600082821c905092915050565b6000610c8f60001984600802610c71565b1980831691505092915050565b6000610ca88383610c7e565b9150826002028217905092915050565b610cc1826105fe565b67ffffffffffffffff811115610cda57610cd9610912565b5b610ce48254610adb565b610cef828285610c2b565b600060209050601f831160018114610d225760008415610d10578287015190505b610d1a8582610c9c565b865550610d82565b601f198416610d3086610b0c565b60005b82811015610d5857848901518255600182019150602085019450602081019050610d33565b86831015610d755784890151610d71601f891682610c7e565b8355505b6001600288020188555050505b50505050505056fea264697066735822122015393bb48ef2e1592304e3a9de8de5667d8e52200b2dd7c438ab4970492e965364736f6c63430008110033",
  "immutableReferences": {},
  "source": "// SPDX-License-Identifier: MIT\n\npragma solidity ^0.8.0;\n\ncontract ReviewSystem {\n\n    struct Review {\n        address reviewer;\n        uint8 rating;\n        string comment;\n    }\n\n    mapping(address => Review[]) public reviews;\n\n    function addReview(address _dest, uint8 _rating, string memory _comment) public {\n        reviews[_dest].push(Review(msg.sender, _rating, _comment));\n    }\n\n    function getNumberOfReviews(address _dest) public view returns (uint) {\n        return reviews[_dest].length;\n    }\n\n    function getReviews(address _dest) public view returns (Review[] memory) {\n        return reviews[_dest];\n    }\n}",
  "sourcePath": "/home/ennio/Documents/Repos/poc-smartcontract/contracts/ReviewSystem.sol",
  "compiler": {
    "name": "solc",
    "version": "0.8.17+commit.8df45f5f.Emscripten.clang"
  },
  "schemaVersion": "3.4.11",
  "updatedAt": "2023-02-18T15:52:52.912Z",
  "networkType": "ethereum",
  "devdoc": {
    "kind": "dev",
    "methods": {},
    "version": 1
  },
  "userdoc": {
    "kind": "user",
    "methods": {},
    "version": 1
  }
}